{
    "_format": "hh-sol-artifact-1",
    "contractName": "Counter",
    "sourceName": "contracts/Counter.sol",
    "abi": [
        {
            "inputs": [
                {
                    "internalType": "uint256",
                    "name": "_counter",
                    "type": "uint256"
                }
            ],
            "stateMutability": "nonpayable",
            "type": "constructor"
        },
        {
            "anonymous": false,
            "inputs": [
                {
                    "indexed": false,
                    "internalType": "uint256",
                    "name": "_counter",
                    "type": "uint256"
                }
            ],
            "name": "UpdatedCounter",
            "type": "event"
        },
        {
            "inputs": [],
            "name": "getCounter",
            "outputs": [
                {
                    "internalType": "uint256",
                    "name": "",
                    "type": "uint256"
                }
            ],
            "stateMutability": "view",
            "type": "function"
        },
        {
            "inputs": [],
            "name": "increment",
            "outputs": [],
            "stateMutability": "nonpayable",
            "type": "function"
        }
    ],
    "bytecode": "0x60806040526000805534801561001457600080fd5b5060405161025138038061025183398181016040528101906100369190610058565b80600081905550506100a2565b6000815190506100528161008b565b92915050565b60006020828403121561006a57600080fd5b600061007884828501610043565b91505092915050565b6000819050919050565b61009481610081565b811461009f57600080fd5b50565b6101a0806100b16000396000f3fe608060405234801561001057600080fd5b50600436106100365760003560e01c80638ada066e1461003b578063d09de08a14610059575b600080fd5b610043610063565b60405161005091906100cd565b60405180910390f35b61006161006c565b005b60008054905090565b60008081548092919061007e906100f2565b91905055507fa2b2aa766495f1a52c0c924778cc2a2cb2890381dd539807f6698eff39226b566000546040516100b491906100cd565b60405180910390a1565b6100c7816100e8565b82525050565b60006020820190506100e260008301846100be565b92915050565b6000819050919050565b60006100fd826100e8565b91507fffffffffffffffffffffffffffffffffffffffffffffffffffffffffffffffff8214156101305761012f61013b565b5b600182019050919050565b7f4e487b7100000000000000000000000000000000000000000000000000000000600052601160045260246000fdfea2646970667358221220337a24217d643555f1629388037cb985cb7b33d8b55521f2226843e0bb2b096d64736f6c63430008040033",
    "linkReferences": {},
    "deployedLinkReferences": {}
}